{
  "contractName": "ERC721Metadata",
  "abi": [
    {
      "inputs": [
        {
          "internalType": "string",
          "name": "_named",
          "type": "string"
        },
        {
          "internalType": "string",
          "name": "_symbolified",
          "type": "string"
        }
      ],
      "stateMutability": "nonpayable",
      "type": "constructor"
    },
    {
      "inputs": [],
      "name": "getName",
      "outputs": [
        {
          "internalType": "string",
          "name": "",
          "type": "string"
        }
      ],
      "stateMutability": "view",
      "type": "function"
    },
    {
      "inputs": [],
      "name": "getSymbol",
      "outputs": [
        {
          "internalType": "string",
          "name": "",
          "type": "string"
        }
      ],
      "stateMutability": "view",
      "type": "function"
    }
  ],
  "bytecode": "0x608060405234801561001057600080fd5b5060405161063538038061063583398181016040528101906100329190610172565b8160009080519060200190610048929190610067565b50806001908051906020019061005f929190610067565b505050610339565b82805461007390610267565b90600052602060002090601f01602090048101928261009557600085556100dc565b82601f106100ae57805160ff19168380011785556100dc565b828001600101855582156100dc579182015b828111156100db5782518255916020019190600101906100c0565b5b5090506100e991906100ed565b5090565b5b808211156101065760008160009055506001016100ee565b5090565b600061011d61011884610203565b6101de565b90508281526020810184848401111561013557600080fd5b610140848285610234565b509392505050565b600082601f83011261015957600080fd5b815161016984826020860161010a565b91505092915050565b6000806040838503121561018557600080fd5b600083015167ffffffffffffffff81111561019f57600080fd5b6101ab85828601610148565b925050602083015167ffffffffffffffff8111156101c857600080fd5b6101d485828601610148565b9150509250929050565b60006101e86101f9565b90506101f48282610299565b919050565b6000604051905090565b600067ffffffffffffffff82111561021e5761021d6102f9565b5b61022782610328565b9050602081019050919050565b60005b83811015610252578082015181840152602081019050610237565b83811115610261576000848401525b50505050565b6000600282049050600182168061027f57607f821691505b60208210811415610293576102926102ca565b5b50919050565b6102a282610328565b810181811067ffffffffffffffff821117156102c1576102c06102f9565b5b80604052505050565b7f4e487b7100000000000000000000000000000000000000000000000000000000600052602260045260246000fd5b7f4e487b7100000000000000000000000000000000000000000000000000000000600052604160045260246000fd5b6000601f19601f8301169050919050565b6102ed806103486000396000f3fe608060405234801561001057600080fd5b50600436106100365760003560e01c8063150704011461003b57806317d7de7c14610059575b600080fd5b610043610077565b60405161005091906101d4565b60405180910390f35b610061610109565b60405161006e91906101d4565b60405180910390f35b60606001805461008690610245565b80601f01602080910402602001604051908101604052809291908181526020018280546100b290610245565b80156100ff5780601f106100d4576101008083540402835291602001916100ff565b820191906000526020600020905b8154815290600101906020018083116100e257829003601f168201915b5050505050905090565b60606000805461011890610245565b80601f016020809104026020016040519081016040528092919081815260200182805461014490610245565b80156101915780601f1061016657610100808354040283529160200191610191565b820191906000526020600020905b81548152906001019060200180831161017457829003601f168201915b5050505050905090565b60006101a6826101f6565b6101b08185610201565b93506101c0818560208601610212565b6101c9816102a6565b840191505092915050565b600060208201905081810360008301526101ee818461019b565b905092915050565b600081519050919050565b600082825260208201905092915050565b60005b83811015610230578082015181840152602081019050610215565b8381111561023f576000848401525b50505050565b6000600282049050600182168061025d57607f821691505b6020821081141561027157610270610277565b5b50919050565b7f4e487b7100000000000000000000000000000000000000000000000000000000600052602260045260246000fd5b6000601f19601f830116905091905056fea26469706673582212203a07701a299709b6f7a639335dc8454555eb98c0f56d77a308c240ac63a60c1d64736f6c63430008020033",
  "immutableReferences": {},
  "source": "// SPDX-License-Identifier: MIT\npragma solidity ^0.8.0;\n\ncontract ERC721Metadata {\n\n    string private name;\n    string private symbol;\n\n    constructor(string memory _named, string memory _symbolified) {\n        name = _named;\n        symbol = _symbolified;\n    }\n\n    function getName() external view returns(string memory){\n        return name;\n    }\n\n    function getSymbol() external view returns(string memory) {\n        return symbol;\n    }\n}",
  "sourcePath": "/Users/hichem/Documents/coding_projects/NFT-Marketplace/src/contracts/ERC721Metadata.sol",
  "compiler": {
    "name": "solc",
    "version": "0.8.2+commit.661d1103.Emscripten.clang"
  },
  "schemaVersion": "3.4.4",
  "updatedAt": "2022-01-18T19:00:02.545Z",
  "devdoc": {
    "kind": "dev",
    "methods": {},
    "version": 1
  },
  "userdoc": {
    "kind": "user",
    "methods": {},
    "version": 1
  }
}