{
  "contractName": "ERC721Connector",
  "abi": [
    {
      "inputs": [
        {
          "internalType": "string",
          "name": "name",
          "type": "string"
        },
        {
          "internalType": "string",
          "name": "symbol",
          "type": "string"
        }
      ],
      "stateMutability": "nonpayable",
      "type": "constructor"
    },
    {
      "anonymous": false,
      "inputs": [
        {
          "indexed": true,
          "internalType": "address",
          "name": "_from",
          "type": "address"
        },
        {
          "indexed": true,
          "internalType": "address",
          "name": "_to",
          "type": "address"
        },
        {
          "indexed": true,
          "internalType": "uint256",
          "name": "_tokenId",
          "type": "uint256"
        }
      ],
      "name": "Transfer",
      "type": "event"
    },
    {
      "inputs": [],
      "name": "getName",
      "outputs": [
        {
          "internalType": "string",
          "name": "",
          "type": "string"
        }
      ],
      "stateMutability": "view",
      "type": "function"
    },
    {
      "inputs": [],
      "name": "getSymbol",
      "outputs": [
        {
          "internalType": "string",
          "name": "",
          "type": "string"
        }
      ],
      "stateMutability": "view",
      "type": "function"
    }
  ],
  "bytecode": "0x608060405234801561001057600080fd5b5060405161063938038061063983398181016040528101906100329190610176565b8181816000908051906020019061004a92919061006b565b50806001908051906020019061006192919061006b565b505050505061033d565b8280546100779061026b565b90600052602060002090601f01602090048101928261009957600085556100e0565b82601f106100b257805160ff19168380011785556100e0565b828001600101855582156100e0579182015b828111156100df5782518255916020019190600101906100c4565b5b5090506100ed91906100f1565b5090565b5b8082111561010a5760008160009055506001016100f2565b5090565b600061012161011c84610207565b6101e2565b90508281526020810184848401111561013957600080fd5b610144848285610238565b509392505050565b600082601f83011261015d57600080fd5b815161016d84826020860161010e565b91505092915050565b6000806040838503121561018957600080fd5b600083015167ffffffffffffffff8111156101a357600080fd5b6101af8582860161014c565b925050602083015167ffffffffffffffff8111156101cc57600080fd5b6101d88582860161014c565b9150509250929050565b60006101ec6101fd565b90506101f8828261029d565b919050565b6000604051905090565b600067ffffffffffffffff821115610222576102216102fd565b5b61022b8261032c565b9050602081019050919050565b60005b8381101561025657808201518184015260208101905061023b565b83811115610265576000848401525b50505050565b6000600282049050600182168061028357607f821691505b60208210811415610297576102966102ce565b5b50919050565b6102a68261032c565b810181811067ffffffffffffffff821117156102c5576102c46102fd565b5b80604052505050565b7f4e487b7100000000000000000000000000000000000000000000000000000000600052602260045260246000fd5b7f4e487b7100000000000000000000000000000000000000000000000000000000600052604160045260246000fd5b6000601f19601f8301169050919050565b6102ed8061034c6000396000f3fe608060405234801561001057600080fd5b50600436106100365760003560e01c8063150704011461003b57806317d7de7c14610059575b600080fd5b610043610077565b60405161005091906101d4565b60405180910390f35b610061610109565b60405161006e91906101d4565b60405180910390f35b60606001805461008690610245565b80601f01602080910402602001604051908101604052809291908181526020018280546100b290610245565b80156100ff5780601f106100d4576101008083540402835291602001916100ff565b820191906000526020600020905b8154815290600101906020018083116100e257829003601f168201915b5050505050905090565b60606000805461011890610245565b80601f016020809104026020016040519081016040528092919081815260200182805461014490610245565b80156101915780601f1061016657610100808354040283529160200191610191565b820191906000526020600020905b81548152906001019060200180831161017457829003601f168201915b5050505050905090565b60006101a6826101f6565b6101b08185610201565b93506101c0818560208601610212565b6101c9816102a6565b840191505092915050565b600060208201905081810360008301526101ee818461019b565b905092915050565b600081519050919050565b600082825260208201905092915050565b60005b83811015610230578082015181840152602081019050610215565b8381111561023f576000848401525b50505050565b6000600282049050600182168061025d57607f821691505b6020821081141561027157610270610277565b5b50919050565b7f4e487b7100000000000000000000000000000000000000000000000000000000600052602260045260246000fd5b6000601f19601f830116905091905056fea264697066735822122015ff7087695b3085bde4ae99ca73826d5f603e5e593b0eef0c7e04af871d341964736f6c63430008020033",
  "immutableReferences": {},
  "source": "// SPDX-License-Identifier: MIT\npragma solidity ^0.8.0;\n\nimport \"./ERC721Metadata.sol\";\nimport \"./ERC721.sol\";\n\ncontract ERC721Connector is ERC721Metadata, ERC721 {\n    constructor(string memory name, string memory symbol) ERC721Metadata(name, symbol) {\n        \n    }\n}",
  "sourcePath": "/Users/hichem/Documents/coding_projects/NFT-Marketplace/src/contracts/ERC721Connector.sol",
  "compiler": {
    "name": "solc",
    "version": "0.8.2+commit.661d1103.Emscripten.clang"
  },
  "schemaVersion": "3.4.4",
  "updatedAt": "2022-01-24T12:39:51.654Z",
  "devdoc": {
    "kind": "dev",
    "methods": {},
    "version": 1
  },
  "userdoc": {
    "kind": "user",
    "methods": {},
    "version": 1
  }
}