{
  "contractName": "ERC721Enumerable",
  "abi": [
    {
      "anonymous": false,
      "inputs": [
        {
          "indexed": true,
          "internalType": "address",
          "name": "_from",
          "type": "address"
        },
        {
          "indexed": true,
          "internalType": "address",
          "name": "_to",
          "type": "address"
        },
        {
          "indexed": true,
          "internalType": "uint256",
          "name": "_tokenId",
          "type": "uint256"
        }
      ],
      "name": "Transfer",
      "type": "event"
    },
    {
      "inputs": [
        {
          "internalType": "address",
          "name": "_owner",
          "type": "address"
        }
      ],
      "name": "balanceOf",
      "outputs": [
        {
          "internalType": "uint256",
          "name": "",
          "type": "uint256"
        }
      ],
      "stateMutability": "view",
      "type": "function"
    },
    {
      "inputs": [
        {
          "internalType": "uint256",
          "name": "_tokenId",
          "type": "uint256"
        }
      ],
      "name": "ownerOf",
      "outputs": [
        {
          "internalType": "address",
          "name": "",
          "type": "address"
        }
      ],
      "stateMutability": "view",
      "type": "function"
    },
    {
      "inputs": [],
      "name": "totalSupply",
      "outputs": [
        {
          "internalType": "uint256",
          "name": "",
          "type": "uint256"
        }
      ],
      "stateMutability": "view",
      "type": "function"
    }
  ],
  "bytecode": "0x608060405234801561001057600080fd5b506104b9806100206000396000f3fe608060405234801561001057600080fd5b50600436106100415760003560e01c806318160ddd146100465780636352211e1461006457806370a0823114610094575b600080fd5b61004e6100c4565b60405161005b9190610375565b60405180910390f35b61007e6004803603810190610079919061028d565b6100d1565b60405161008b919061031a565b60405180910390f35b6100ae60048036038101906100a99190610264565b610182565b6040516100bb9190610375565b60405180910390f35b6000600280549050905090565b60008060008084815260200190815260200160002060009054906101000a900473ffffffffffffffffffffffffffffffffffffffff169050600073ffffffffffffffffffffffffffffffffffffffff168173ffffffffffffffffffffffffffffffffffffffff161415610179576040517f08c379a000000000000000000000000000000000000000000000000000000000815260040161017090610355565b60405180910390fd5b80915050919050565b60008073ffffffffffffffffffffffffffffffffffffffff168273ffffffffffffffffffffffffffffffffffffffff1614156101f3576040517f08c379a00000000000000000000000000000000000000000000000000000000081526004016101ea90610335565b60405180910390fd5b600160008373ffffffffffffffffffffffffffffffffffffffff1673ffffffffffffffffffffffffffffffffffffffff168152602001908152602001600020549050919050565b60008135905061024981610455565b92915050565b60008135905061025e8161046c565b92915050565b60006020828403121561027657600080fd5b60006102848482850161023a565b91505092915050565b60006020828403121561029f57600080fd5b60006102ad8482850161024f565b91505092915050565b6102bf816103a1565b82525050565b60006102d2601c83610390565b91506102dd826103dd565b602082019050919050565b60006102f5602483610390565b915061030082610406565b604082019050919050565b610314816103d3565b82525050565b600060208201905061032f60008301846102b6565b92915050565b6000602082019050818103600083015261034e816102c5565b9050919050565b6000602082019050818103600083015261036e816102e8565b9050919050565b600060208201905061038a600083018461030b565b92915050565b600082825260208201905092915050565b60006103ac826103b3565b9050919050565b600073ffffffffffffffffffffffffffffffffffffffff82169050919050565b6000819050919050565b7f4552433732313a205a65726f206164647265737320656e746572656400000000600082015250565b7f4552433732313a204e46542061737369676e656420746f207a65726f2061646460008201527f7265737300000000000000000000000000000000000000000000000000000000602082015250565b61045e816103a1565b811461046957600080fd5b50565b610475816103d3565b811461048057600080fd5b5056fea2646970667358221220b820eaaea52dfe5b50b41c2ebdd4621475979e08ce752ea4a89e00e572247c3d64736f6c63430008020033",
  "immutableReferences": {},
  "source": "// SPDX-License-Identifier: MIT\npragma solidity ^0.8.0;\n\nimport \"./ERC721.sol\";\n\ncontract ERC721Enumerable is ERC721 {\n\n    uint256[] private allTokens;\n    // Mapping from tokenIdto position in allToken[]\n    mapping(uint256 => uint256) private allTokensIndex;\n    // Mapping from owner to list of all owner tokenIds\n    mapping(address => uint256[]) private ownedTokens;\n    // Mapping from tokenId to index of the owner tokens list\n    mapping(uint256 => uint256) private ownedTokensIndex;\n\n    function totalSupply() external view returns (uint256) {\n        return allTokens.length;\n    }\n\n    //function tokenByIndex(uint256 _index) external view returns (uint256);\n\n    //function tokenOfOwnerByIndex(address _owner, uint256 _index) external view returns (uint256);\n\n    function _mint(address _to, uint256 _tokenId) internal override(ERC721) {\n        super._mint(_to, _tokenId);\n        _addTokensToTotalSupply(_tokenId);\n    }\n\n    function _addTokensToTotalSupply(uint256 _tokenId) private {\n        allTokens.push(_tokenId);\n    }\n}",
  "sourcePath": "/Users/hichem/Documents/coding_projects/NFT-Marketplace/src/contracts/ERC721Enumerable.sol",
  "compiler": {
    "name": "solc",
    "version": "0.8.2+commit.661d1103.Emscripten.clang"
  },
  "schemaVersion": "3.4.4",
  "updatedAt": "2022-01-25T12:16:33.807Z",
  "devdoc": {
    "kind": "dev",
    "methods": {
      "balanceOf(address)": {
        "details": "NFTs assigned to the zero address are considered invalid, and this  function throws for queries about the zero address.",
        "params": {
          "_owner": "An address for whom to query the balance"
        },
        "returns": {
          "_0": "The number of NFTs owned by `_owner`, possibly zero"
        }
      },
      "ownerOf(uint256)": {
        "details": "NFTs assigned to zero address are considered invalid, and queries  about them do throw.",
        "params": {
          "_tokenId": "The identifier for an NFT"
        },
        "returns": {
          "_0": "The address of the owner of the NFT"
        }
      }
    },
    "version": 1
  },
  "userdoc": {
    "kind": "user",
    "methods": {
      "balanceOf(address)": {
        "notice": "Count all NFTs assigned to an owner"
      },
      "ownerOf(uint256)": {
        "notice": "Find the owner of an NFT"
      }
    },
    "version": 1
  }
}