{
  "contractName": "NFTMarketplace",
  "abi": [
    {
      "inputs": [],
      "stateMutability": "nonpayable",
      "type": "constructor"
    },
    {
      "anonymous": false,
      "inputs": [
        {
          "indexed": true,
          "internalType": "address",
          "name": "_from",
          "type": "address"
        },
        {
          "indexed": true,
          "internalType": "address",
          "name": "_to",
          "type": "address"
        },
        {
          "indexed": true,
          "internalType": "uint256",
          "name": "_tokenId",
          "type": "uint256"
        }
      ],
      "name": "Transfer",
      "type": "event"
    },
    {
      "inputs": [
        {
          "internalType": "address",
          "name": "_owner",
          "type": "address"
        }
      ],
      "name": "balanceOf",
      "outputs": [
        {
          "internalType": "uint256",
          "name": "",
          "type": "uint256"
        }
      ],
      "stateMutability": "view",
      "type": "function",
      "constant": true
    },
    {
      "inputs": [],
      "name": "getName",
      "outputs": [
        {
          "internalType": "string",
          "name": "",
          "type": "string"
        }
      ],
      "stateMutability": "view",
      "type": "function",
      "constant": true
    },
    {
      "inputs": [],
      "name": "getSymbol",
      "outputs": [
        {
          "internalType": "string",
          "name": "",
          "type": "string"
        }
      ],
      "stateMutability": "view",
      "type": "function",
      "constant": true
    },
    {
      "inputs": [
        {
          "internalType": "uint256",
          "name": "",
          "type": "uint256"
        }
      ],
      "name": "nfts",
      "outputs": [
        {
          "internalType": "string",
          "name": "",
          "type": "string"
        }
      ],
      "stateMutability": "view",
      "type": "function",
      "constant": true
    },
    {
      "inputs": [
        {
          "internalType": "uint256",
          "name": "_tokenId",
          "type": "uint256"
        }
      ],
      "name": "ownerOf",
      "outputs": [
        {
          "internalType": "address",
          "name": "",
          "type": "address"
        }
      ],
      "stateMutability": "view",
      "type": "function",
      "constant": true
    },
    {
      "inputs": [],
      "name": "totalSupply",
      "outputs": [
        {
          "internalType": "uint256",
          "name": "",
          "type": "uint256"
        }
      ],
      "stateMutability": "view",
      "type": "function",
      "constant": true
    },
    {
      "inputs": [
        {
          "internalType": "string",
          "name": "_nft",
          "type": "string"
        }
      ],
      "name": "mint",
      "outputs": [],
      "stateMutability": "nonpayable",
      "type": "function"
    }
  ],
  "bytecode": "0x60806040523480156200001157600080fd5b506040518060400160405280600e81526020017f4e46544d61726b6574706c6163650000000000000000000000000000000000008152506040518060400160405280600a81526020017f4e54464d524b54504c43000000000000000000000000000000000000000000008152508181816000908051906020019062000098929190620000bc565b508060019080519060200190620000b1929190620000bc565b5050505050620001d1565b828054620000ca906200016c565b90600052602060002090601f016020900481019282620000ee57600085556200013a565b82601f106200010957805160ff19168380011785556200013a565b828001600101855582156200013a579182015b82811115620001395782518255916020019190600101906200011c565b5b5090506200014991906200014d565b5090565b5b80821115620001685760008160009055506001016200014e565b5090565b600060028204905060018216806200018557607f821691505b602082108114156200019c576200019b620001a2565b5b50919050565b7f4e487b7100000000000000000000000000000000000000000000000000000000600052602260045260246000fd5b61108080620001e16000396000f3fe608060405234801561001057600080fd5b506004361061007d5760003560e01c8063265aa6211161005b578063265aa621146100dc5780636352211e1461010c57806370a082311461013c578063d85d3d271461016c5761007d565b8063150704011461008257806317d7de7c146100a057806318160ddd146100be575b600080fd5b61008a610188565b6040516100979190610b7a565b60405180910390f35b6100a861021a565b6040516100b59190610b7a565b60405180910390f35b6100c66102ac565b6040516100d39190610c3c565b60405180910390f35b6100f660048036038101906100f191906109e8565b6102b9565b6040516101039190610b7a565b60405180910390f35b610126600480360381019061012191906109e8565b610365565b6040516101339190610b5f565b60405180910390f35b6101566004803603810190610151919061097e565b610417565b6040516101639190610c3c565b60405180910390f35b610186600480360381019061018191906109a7565b6104cf565b005b60606001805461019790610ddc565b80601f01602080910402602001604051908101604052809291908181526020018280546101c390610ddc565b80156102105780601f106101e557610100808354040283529160200191610210565b820191906000526020600020905b8154815290600101906020018083116101f357829003601f168201915b5050505050905090565b60606000805461022990610ddc565b80601f016020809104026020016040519081016040528092919081815260200182805461025590610ddc565b80156102a25780601f10610277576101008083540402835291602001916102a2565b820191906000526020600020905b81548152906001019060200180831161028557829003601f168201915b5050505050905090565b6000600480549050905090565b600881815481106102c957600080fd5b9060005260206000200160009150905080546102e490610ddc565b80601f016020809104026020016040519081016040528092919081815260200182805461031090610ddc565b801561035d5780601f106103325761010080835404028352916020019161035d565b820191906000526020600020905b81548152906001019060200180831161034057829003601f168201915b505050505081565b6000806002600084815260200190815260200160002060009054906101000a900473ffffffffffffffffffffffffffffffffffffffff169050600073ffffffffffffffffffffffffffffffffffffffff168173ffffffffffffffffffffffffffffffffffffffff16141561040e576040517f08c379a000000000000000000000000000000000000000000000000000000000815260040161040590610c1c565b60405180910390fd5b80915050919050565b60008073ffffffffffffffffffffffffffffffffffffffff168273ffffffffffffffffffffffffffffffffffffffff161415610488576040517f08c379a000000000000000000000000000000000000000000000000000000000815260040161047f90610bbc565b60405180910390fd5b600360008373ffffffffffffffffffffffffffffffffffffffff1673ffffffffffffffffffffffffffffffffffffffff168152602001908152602001600020549050919050565b6009816040516104df9190610b48565b908152602001604051809103902060009054906101000a900460ff161561053b576040517f08c379a000000000000000000000000000000000000000000000000000000000815260040161053290610bfc565b60405180910390fd5b600881908060018154018082558091505060019003906000526020600020016000909190919091509080519060200190610576929190610849565b506000600160088054905061058b9190610d2a565b905061059733826105d2565b60016009836040516105a99190610b48565b908152602001604051809103902060006101000a81548160ff0219169083151502179055505050565b6105dc82826105e9565b6105e5816107ab565b5050565b600073ffffffffffffffffffffffffffffffffffffffff168273ffffffffffffffffffffffffffffffffffffffff161415610659576040517f08c379a000000000000000000000000000000000000000000000000000000000815260040161065090610b9c565b60405180910390fd5b610662816107d7565b156106a2576040517f08c379a000000000000000000000000000000000000000000000000000000000815260040161069990610bdc565b60405180910390fd5b816002600083815260200190815260200160002060006101000a81548173ffffffffffffffffffffffffffffffffffffffff021916908373ffffffffffffffffffffffffffffffffffffffff1602179055506001600360008473ffffffffffffffffffffffffffffffffffffffff1673ffffffffffffffffffffffffffffffffffffffff16815260200190815260200160002060008282546107449190610cd4565b92505081905550808273ffffffffffffffffffffffffffffffffffffffff16600073ffffffffffffffffffffffffffffffffffffffff167fddf252ad1be2c89b69c2b068fc378daa952ba7f163c4a11628f55a4df523b3ef60405160405180910390a45050565b600481908060018154018082558091505060019003906000526020600020016000909190919091505550565b6000806002600084815260200190815260200160002060009054906101000a900473ffffffffffffffffffffffffffffffffffffffff169050600073ffffffffffffffffffffffffffffffffffffffff168173ffffffffffffffffffffffffffffffffffffffff161415915050919050565b82805461085590610ddc565b90600052602060002090601f01602090048101928261087757600085556108be565b82601f1061089057805160ff19168380011785556108be565b828001600101855582156108be579182015b828111156108bd5782518255916020019190600101906108a2565b5b5090506108cb91906108cf565b5090565b5b808211156108e85760008160009055506001016108d0565b5090565b60006108ff6108fa84610c7c565b610c57565b90508281526020810184848401111561091757600080fd5b610922848285610d9a565b509392505050565b6000813590506109398161101c565b92915050565b600082601f83011261095057600080fd5b81356109608482602086016108ec565b91505092915050565b60008135905061097881611033565b92915050565b60006020828403121561099057600080fd5b600061099e8482850161092a565b91505092915050565b6000602082840312156109b957600080fd5b600082013567ffffffffffffffff8111156109d357600080fd5b6109df8482850161093f565b91505092915050565b6000602082840312156109fa57600080fd5b6000610a0884828501610969565b91505092915050565b610a1a81610d5e565b82525050565b6000610a2b82610cad565b610a358185610cb8565b9350610a45818560208601610da9565b610a4e81610ecc565b840191505092915050565b6000610a6482610cad565b610a6e8185610cc9565b9350610a7e818560208601610da9565b80840191505092915050565b6000610a97602383610cb8565b9150610aa282610edd565b604082019050919050565b6000610aba601c83610cb8565b9150610ac582610f2c565b602082019050919050565b6000610add601c83610cb8565b9150610ae882610f55565b602082019050919050565b6000610b00602983610cb8565b9150610b0b82610f7e565b604082019050919050565b6000610b23602483610cb8565b9150610b2e82610fcd565b604082019050919050565b610b4281610d90565b82525050565b6000610b548284610a59565b915081905092915050565b6000602082019050610b746000830184610a11565b92915050565b60006020820190508181036000830152610b948184610a20565b905092915050565b60006020820190508181036000830152610bb581610a8a565b9050919050565b60006020820190508181036000830152610bd581610aad565b9050919050565b60006020820190508181036000830152610bf581610ad0565b9050919050565b60006020820190508181036000830152610c1581610af3565b9050919050565b60006020820190508181036000830152610c3581610b16565b9050919050565b6000602082019050610c516000830184610b39565b92915050565b6000610c61610c72565b9050610c6d8282610e0e565b919050565b6000604051905090565b600067ffffffffffffffff821115610c9757610c96610e9d565b5b610ca082610ecc565b9050602081019050919050565b600081519050919050565b600082825260208201905092915050565b600081905092915050565b6000610cdf82610d90565b9150610cea83610d90565b9250827fffffffffffffffffffffffffffffffffffffffffffffffffffffffffffffffff03821115610d1f57610d1e610e3f565b5b828201905092915050565b6000610d3582610d90565b9150610d4083610d90565b925082821015610d5357610d52610e3f565b5b828203905092915050565b6000610d6982610d70565b9050919050565b600073ffffffffffffffffffffffffffffffffffffffff82169050919050565b6000819050919050565b82818337600083830152505050565b60005b83811015610dc7578082015181840152602081019050610dac565b83811115610dd6576000848401525b50505050565b60006002820490506001821680610df457607f821691505b60208210811415610e0857610e07610e6e565b5b50919050565b610e1782610ecc565b810181811067ffffffffffffffff82111715610e3657610e35610e9d565b5b80604052505050565b7f4e487b7100000000000000000000000000000000000000000000000000000000600052601160045260246000fd5b7f4e487b7100000000000000000000000000000000000000000000000000000000600052602260045260246000fd5b7f4e487b7100000000000000000000000000000000000000000000000000000000600052604160045260246000fd5b6000601f19601f8301169050919050565b7f4552433732313a204d696e74696e6720746f20746865207a65726f206164647260008201527f6573730000000000000000000000000000000000000000000000000000000000602082015250565b7f4552433732313a205a65726f206164647265737320656e746572656400000000600082015250565b7f4552433732313a20546f6b656e20616c7265616479206d696e74656400000000600082015250565b7f4e46544d61726b6574706c6163653a204b727970746f6269726420616c72656160008201527f6479206578697374730000000000000000000000000000000000000000000000602082015250565b7f4552433732313a204e46542061737369676e656420746f207a65726f2061646460008201527f7265737300000000000000000000000000000000000000000000000000000000602082015250565b61102581610d5e565b811461103057600080fd5b50565b61103c81610d90565b811461104757600080fd5b5056fea264697066735822122097ba25e81f2e78bc36af6a15be61e14e52c25835587d1e13e42886a5203932fc64736f6c63430008020033",
  "immutableReferences": {},
  "source": "// SPDX-License-Identifier: MIT\npragma solidity ^0.8.0;\n\nimport \"./ERC721Connector.sol\";\n\ncontract NFTMarketplace is ERC721Connector {\n\n    string[] public nfts;\n    mapping(string => bool) nftsExist;\n\n    constructor() ERC721Connector(\"NFTMarketplace\", \"NTFMRKTPLC\") {}\n\n    function mint(string memory _nft) public {\n        require(!nftsExist[_nft], \"NFTMarketplace: Kryptobird already exists\");\n        nfts.push(_nft);\n        // .push does not return length of array anymore\n        uint256 id = nfts.length - 1;\n        _mint(msg.sender, id);\n        nftsExist[_nft] = true;\n    }\n\n\n}",
  "sourcePath": "/Users/hichem/Documents/coding_projects/NFT-Marketplace/src/contracts/NFTMarketplace.sol",
  "compiler": {
    "name": "solc",
    "version": "0.8.2+commit.661d1103.Emscripten.clang"
  },
  "schemaVersion": "3.4.4",
  "updatedAt": "2022-01-25T12:17:10.584Z",
  "networkType": "ethereum",
  "devdoc": {
    "kind": "dev",
    "methods": {
      "balanceOf(address)": {
        "details": "NFTs assigned to the zero address are considered invalid, and this  function throws for queries about the zero address.",
        "params": {
          "_owner": "An address for whom to query the balance"
        },
        "returns": {
          "_0": "The number of NFTs owned by `_owner`, possibly zero"
        }
      },
      "ownerOf(uint256)": {
        "details": "NFTs assigned to zero address are considered invalid, and queries  about them do throw.",
        "params": {
          "_tokenId": "The identifier for an NFT"
        },
        "returns": {
          "_0": "The address of the owner of the NFT"
        }
      }
    },
    "version": 1
  },
  "userdoc": {
    "kind": "user",
    "methods": {
      "balanceOf(address)": {
        "notice": "Count all NFTs assigned to an owner"
      },
      "ownerOf(uint256)": {
        "notice": "Find the owner of an NFT"
      }
    },
    "version": 1
  }
}