{
  "contractName": "NFTMarketplace",
  "abi": [
    {
      "inputs": [],
      "stateMutability": "nonpayable",
      "type": "constructor"
    },
    {
      "anonymous": false,
      "inputs": [
        {
          "indexed": true,
          "internalType": "address",
          "name": "_from",
          "type": "address"
        },
        {
          "indexed": true,
          "internalType": "address",
          "name": "_to",
          "type": "address"
        },
        {
          "indexed": true,
          "internalType": "uint256",
          "name": "_tokenId",
          "type": "uint256"
        }
      ],
      "name": "Transfer",
      "type": "event"
    },
    {
      "inputs": [],
      "name": "getName",
      "outputs": [
        {
          "internalType": "string",
          "name": "",
          "type": "string"
        }
      ],
      "stateMutability": "view",
      "type": "function",
      "constant": true
    },
    {
      "inputs": [],
      "name": "getSymbol",
      "outputs": [
        {
          "internalType": "string",
          "name": "",
          "type": "string"
        }
      ],
      "stateMutability": "view",
      "type": "function",
      "constant": true
    },
    {
      "inputs": [
        {
          "internalType": "uint256",
          "name": "",
          "type": "uint256"
        }
      ],
      "name": "kryptoBirdz",
      "outputs": [
        {
          "internalType": "string",
          "name": "",
          "type": "string"
        }
      ],
      "stateMutability": "view",
      "type": "function",
      "constant": true
    },
    {
      "inputs": [
        {
          "internalType": "string",
          "name": "_kryptobird",
          "type": "string"
        }
      ],
      "name": "mint",
      "outputs": [],
      "stateMutability": "nonpayable",
      "type": "function"
    }
  ],
  "bytecode": "0x60806040523480156200001157600080fd5b506040518060400160405280600e81526020017f4e46544d61726b6574706c6163650000000000000000000000000000000000008152506040518060400160405280600a81526020017f4e54464d524b54504c43000000000000000000000000000000000000000000008152508181816000908051906020019062000098929190620000bc565b508060019080519060200190620000b1929190620000bc565b5050505050620001d1565b828054620000ca906200016c565b90600052602060002090601f016020900481019282620000ee57600085556200013a565b82601f106200010957805160ff19168380011785556200013a565b828001600101855582156200013a579182015b82811115620001395782518255916020019190600101906200011c565b5b5090506200014991906200014d565b5090565b5b80821115620001685760008160009055506001016200014e565b5090565b600060028204905060018216806200018557607f821691505b602082108114156200019c576200019b620001a2565b5b50919050565b7f4e487b7100000000000000000000000000000000000000000000000000000000600052602260045260246000fd5b610c3e80620001e16000396000f3fe608060405234801561001057600080fd5b506004361061004c5760003560e01c8063150704011461005157806317d7de7c1461006f57806393ab6e561461008d578063d85d3d27146100bd575b600080fd5b6100596100d9565b6040516100669190610854565b60405180910390f35b61007761016b565b6040516100849190610854565b60405180910390f35b6100a760048036038101906100a29190610741565b6101fd565b6040516100b49190610854565b60405180910390f35b6100d760048036038101906100d29190610700565b6102a9565b005b6060600180546100e890610a29565b80601f016020809104026020016040519081016040528092919081815260200182805461011490610a29565b80156101615780601f1061013657610100808354040283529160200191610161565b820191906000526020600020905b81548152906001019060200180831161014457829003601f168201915b5050505050905090565b60606000805461017a90610a29565b80601f01602080910402602001604051908101604052809291908181526020018280546101a690610a29565b80156101f35780601f106101c8576101008083540402835291602001916101f3565b820191906000526020600020905b8154815290600101906020018083116101d657829003601f168201915b5050505050905090565b6004818154811061020d57600080fd5b90600052602060002001600091509050805461022890610a29565b80601f016020809104026020016040519081016040528092919081815260200182805461025490610a29565b80156102a15780601f10610276576101008083540402835291602001916102a1565b820191906000526020600020905b81548152906001019060200180831161028457829003601f168201915b505050505081565b6005816040516102b9919061083d565b908152602001604051809103902060009054906101000a900460ff1615610315576040517f08c379a000000000000000000000000000000000000000000000000000000000815260040161030c906108b6565b60405180910390fd5b6004819080600181540180825580915050600190039060005260206000200160009091909190915090805190602001906103509291906105e0565b506000600160048054905061036591906109a9565b905061037133826103ac565b6001600583604051610383919061083d565b908152602001604051809103902060006101000a81548160ff0219169083151502179055505050565b600073ffffffffffffffffffffffffffffffffffffffff168273ffffffffffffffffffffffffffffffffffffffff16141561041c576040517f08c379a000000000000000000000000000000000000000000000000000000000815260040161041390610876565b60405180910390fd5b6104258161056e565b15610465576040517f08c379a000000000000000000000000000000000000000000000000000000000815260040161045c90610896565b60405180910390fd5b816002600083815260200190815260200160002060006101000a81548173ffffffffffffffffffffffffffffffffffffffff021916908373ffffffffffffffffffffffffffffffffffffffff1602179055506001600360008473ffffffffffffffffffffffffffffffffffffffff1673ffffffffffffffffffffffffffffffffffffffff16815260200190815260200160002060008282546105079190610953565b92505081905550808273ffffffffffffffffffffffffffffffffffffffff16600073ffffffffffffffffffffffffffffffffffffffff167fddf252ad1be2c89b69c2b068fc378daa952ba7f163c4a11628f55a4df523b3ef60405160405180910390a45050565b6000806002600084815260200190815260200160002060009054906101000a900473ffffffffffffffffffffffffffffffffffffffff169050600073ffffffffffffffffffffffffffffffffffffffff168173ffffffffffffffffffffffffffffffffffffffff161415915050919050565b8280546105ec90610a29565b90600052602060002090601f01602090048101928261060e5760008555610655565b82601f1061062757805160ff1916838001178555610655565b82800160010185558215610655579182015b82811115610654578251825591602001919060010190610639565b5b5090506106629190610666565b5090565b5b8082111561067f576000816000905550600101610667565b5090565b6000610696610691846108fb565b6108d6565b9050828152602081018484840111156106ae57600080fd5b6106b98482856109e7565b509392505050565b600082601f8301126106d257600080fd5b81356106e2848260208601610683565b91505092915050565b6000813590506106fa81610bf1565b92915050565b60006020828403121561071257600080fd5b600082013567ffffffffffffffff81111561072c57600080fd5b610738848285016106c1565b91505092915050565b60006020828403121561075357600080fd5b6000610761848285016106eb565b91505092915050565b60006107758261092c565b61077f8185610937565b935061078f8185602086016109f6565b61079881610b19565b840191505092915050565b60006107ae8261092c565b6107b88185610948565b93506107c88185602086016109f6565b80840191505092915050565b60006107e1602383610937565b91506107ec82610b2a565b604082019050919050565b6000610804601c83610937565b915061080f82610b79565b602082019050919050565b6000610827602983610937565b915061083282610ba2565b604082019050919050565b600061084982846107a3565b915081905092915050565b6000602082019050818103600083015261086e818461076a565b905092915050565b6000602082019050818103600083015261088f816107d4565b9050919050565b600060208201905081810360008301526108af816107f7565b9050919050565b600060208201905081810360008301526108cf8161081a565b9050919050565b60006108e06108f1565b90506108ec8282610a5b565b919050565b6000604051905090565b600067ffffffffffffffff82111561091657610915610aea565b5b61091f82610b19565b9050602081019050919050565b600081519050919050565b600082825260208201905092915050565b600081905092915050565b600061095e826109dd565b9150610969836109dd565b9250827fffffffffffffffffffffffffffffffffffffffffffffffffffffffffffffffff0382111561099e5761099d610a8c565b5b828201905092915050565b60006109b4826109dd565b91506109bf836109dd565b9250828210156109d2576109d1610a8c565b5b828203905092915050565b6000819050919050565b82818337600083830152505050565b60005b83811015610a145780820151818401526020810190506109f9565b83811115610a23576000848401525b50505050565b60006002820490506001821680610a4157607f821691505b60208210811415610a5557610a54610abb565b5b50919050565b610a6482610b19565b810181811067ffffffffffffffff82111715610a8357610a82610aea565b5b80604052505050565b7f4e487b7100000000000000000000000000000000000000000000000000000000600052601160045260246000fd5b7f4e487b7100000000000000000000000000000000000000000000000000000000600052602260045260246000fd5b7f4e487b7100000000000000000000000000000000000000000000000000000000600052604160045260246000fd5b6000601f19601f8301169050919050565b7f4552433732313a204d696e74696e6720746f20746865207a65726f206164647260008201527f6573730000000000000000000000000000000000000000000000000000000000602082015250565b7f4552433732313a20546f6b656e20616c7265616479206d696e74656400000000600082015250565b7f4e46544d61726b6574706c6163653a204b727970746f6269726420616c72656160008201527f6479206578697374730000000000000000000000000000000000000000000000602082015250565b610bfa816109dd565b8114610c0557600080fd5b5056fea2646970667358221220bc3442c27e97a01046b1166c200f95637098a7d7195b534dc0363aaace34f58c64736f6c63430008020033",
  "immutableReferences": {},
  "source": "// SPDX-License-Identifier: MIT\npragma solidity ^0.8.0;\n\nimport \"./ERC721Connector.sol\";\n\ncontract NFTMarketplace is ERC721Connector {\n\n    string[] public kryptoBirdz;\n    mapping(string => bool) kryptoBirdzExist;\n\n    constructor() ERC721Connector(\"NFTMarketplace\", \"NTFMRKTPLC\") {}\n\n    function mint(string memory _kryptobird) public {\n        require(!kryptoBirdzExist[_kryptobird], \"NFTMarketplace: Kryptobird already exists\");\n        kryptoBirdz.push(_kryptobird);\n        // .push does not return length of array anymore\n        uint id = kryptoBirdz.length - 1;\n        _mint(msg.sender, id);\n        kryptoBirdzExist[_kryptobird] = true;\n    }\n\n\n}",
  "sourcePath": "/Users/hichem/Documents/coding_projects/NFT-Marketplace/src/contracts/NFTMarketplace.sol",
  "compiler": {
    "name": "solc",
    "version": "0.8.2+commit.661d1103.Emscripten.clang"
  },
  "schemaVersion": "3.4.4",
  "updatedAt": "2022-01-24T12:41:38.576Z",
  "networkType": "ethereum",
  "devdoc": {
    "kind": "dev",
    "methods": {},
    "version": 1
  },
  "userdoc": {
    "kind": "user",
    "methods": {},
    "version": 1
  }
}